{
  "contractName": "Votera",
  "abi": [
    {
      "constant": true,
      "inputs": [
        {
          "name": "",
          "type": "address"
        }
      ],
      "name": "posts",
      "outputs": [
        {
          "name": "id",
          "type": "uint256"
        },
        {
          "name": "postName",
          "type": "string"
        },
        {
          "name": "numberOfCandidates",
          "type": "uint256"
        }
      ],
      "payable": false,
      "stateMutability": "view",
      "type": "function"
    },
    {
      "constant": true,
      "inputs": [],
      "name": "candidatesCount",
      "outputs": [
        {
          "name": "",
          "type": "uint256"
        }
      ],
      "payable": false,
      "stateMutability": "view",
      "type": "function"
    },
    {
      "constant": true,
      "inputs": [
        {
          "name": "",
          "type": "uint256"
        }
      ],
      "name": "candidates",
      "outputs": [
        {
          "name": "id",
          "type": "uint256"
        },
        {
          "name": "name",
          "type": "string"
        },
        {
          "name": "voteCount",
          "type": "uint256"
        }
      ],
      "payable": false,
      "stateMutability": "view",
      "type": "function"
    },
    {
      "constant": true,
      "inputs": [
        {
          "name": "",
          "type": "address"
        }
      ],
      "name": "voters",
      "outputs": [
        {
          "name": "",
          "type": "bool"
        }
      ],
      "payable": false,
      "stateMutability": "view",
      "type": "function"
    },
    {
      "inputs": [],
      "payable": false,
      "stateMutability": "nonpayable",
      "type": "constructor"
    },
    {
      "anonymous": false,
      "inputs": [
        {
          "indexed": true,
          "name": "_candidateId",
          "type": "uint256"
        }
      ],
      "name": "votedEvent",
      "type": "event"
    },
    {
      "constant": false,
      "inputs": [
        {
          "name": "_candidateId",
          "type": "uint256"
        }
      ],
      "name": "vote",
      "outputs": [],
      "payable": false,
      "stateMutability": "nonpayable",
      "type": "function"
    }
  ],
  "bytecode": "0x608060405234801561001057600080fd5b5061005e6040805190810160405280600e81526020017f476f6f646c75636b20456b656e650000000000000000000000000000000000008152506100fd640100000000026401000000009004565b6100ab6040805190810160405280601081526020017f46616b6f72656465204d6f73686f6f64000000000000000000000000000000008152506100fd640100000000026401000000009004565b6100f86040805190810160405280600c81526020017f4f6c6177616c6520416b696e00000000000000000000000000000000000000008152506100fd640100000000026401000000009004565b61021f565b6003600081548092919060010191905055506060604051908101604052806003548152602001828152602001600081525060016000600354815260200190815260200160002060008201518160000155602082015181600101908051906020019061016992919061017a565b506040820151816002015590505050565b828054600181600116156101000203166002900490600052602060002090601f016020900481019282601f106101bb57805160ff19168380011785556101e9565b828001600101855582156101e9579182015b828111156101e85782518255916020019190600101906101cd565b5b5090506101f691906101fa565b5090565b61021c91905b80821115610218576000816000905550600101610200565b5090565b90565b61059b8061022e6000396000f30060806040526004361061006d576000357c0100000000000000000000000000000000000000000000000000000000900463ffffffff1680630121b93f1461007257806303eaf3171461009f5780632d35a8a2146101695780633477ee2e14610194578063a3ec138d14610248575b600080fd5b34801561007e57600080fd5b5061009d600480360381019080803590602001909291905050506102a3565b005b3480156100ab57600080fd5b506100e0600480360381019080803573ffffffffffffffffffffffffffffffffffffffff1690602001909291905050506103c5565b6040518084815260200180602001838152602001828103825284818151815260200191508051906020019080838360005b8381101561012c578082015181840152602081019050610111565b50505050905090810190601f1680156101595780820380516001836020036101000a031916815260200191505b5094505050505060405180910390f35b34801561017557600080fd5b5061017e610487565b6040518082815260200191505060405180910390f35b3480156101a057600080fd5b506101bf6004803603810190808035906020019092919050505061048d565b6040518084815260200180602001838152602001828103825284818151815260200191508051906020019080838360005b8381101561020b5780820151818401526020810190506101f0565b50505050905090810190601f1680156102385780820380516001836020036101000a031916815260200191505b5094505050505060405180910390f35b34801561025457600080fd5b50610289600480360381019080803573ffffffffffffffffffffffffffffffffffffffff16906020019092919050505061054f565b604051808215151515815260200191505060405180910390f35b6000803373ffffffffffffffffffffffffffffffffffffffff1673ffffffffffffffffffffffffffffffffffffffff16815260200190815260200160002060009054906101000a900460ff161515156102fb57600080fd5b60008111801561030d57506003548111155b151561031857600080fd5b60016000803373ffffffffffffffffffffffffffffffffffffffff1673ffffffffffffffffffffffffffffffffffffffff16815260200190815260200160002060006101000a81548160ff0219169083151502179055506001600082815260200190815260200160002060020160008154809291906001019190505550807ffff3c900d938d21d0990d786e819f29b8d05c1ef587b462b939609625b684b1660405160405180910390a250565b6002602052806000526040600020600091509050806000015490806001018054600181600116156101000203166002900480601f0160208091040260200160405190810160405280929190818152602001828054600181600116156101000203166002900480156104775780601f1061044c57610100808354040283529160200191610477565b820191906000526020600020905b81548152906001019060200180831161045a57829003601f168201915b5050505050908060020154905083565b60035481565b6001602052806000526040600020600091509050806000015490806001018054600181600116156101000203166002900480601f01602080910402602001604051908101604052809291908181526020018280546001816001161561010002031660029004801561053f5780601f106105145761010080835404028352916020019161053f565b820191906000526020600020905b81548152906001019060200180831161052257829003601f168201915b5050505050908060020154905083565b60006020528060005260406000206000915054906101000a900460ff16815600a165627a7a723058202aa74b7c08ce3af91bb5bd402f7a2d6859121cff46ec29a638fe72d45090ba860029",
  "source": "pragma solidity 0.4.24;\r\n// pragma experimental ABIEncoderV2;\r\n\r\ncontract Votera {\r\n\r\n    // Model a Candidate\r\n    struct Candidate {\r\n        uint id;\r\n        string name;\r\n        uint voteCount;\r\n    }\r\n\r\n    //Model a Post (or Categories)\r\n    struct Posts {\r\n        uint id;\r\n        string postName;\r\n        uint numberOfCandidates;\r\n\r\n        \r\n    }\r\n    \r\n\r\n    // Store accounts that have voted\r\n    mapping(address => bool) public voters;\r\n\r\n    // bytes32[] public candidateList;\r\n\r\n    \r\n     // Store Candidates\r\n    // Fetch Candidate\r\n    mapping(uint => Candidate) public candidates;\r\n\r\n    // Store Posts\r\n    // Fetch Posts\r\n    mapping(address => Posts) public posts;\r\n\r\n    // Store Categories\r\n    // Fetch Categories\r\n    // mapping(string => mapping (uint => Candidate)) public categories;\r\n\r\n    // Store Candidates Count\r\n    uint public candidatesCount;\r\n\r\n    // voted event\r\n    event votedEvent (\r\n        uint indexed _candidateId\r\n    );\r\n\r\n    constructor () public {\r\n        addCandidate(\"Goodluck Ekene\");\r\n        addCandidate(\"Fakorede Moshood\");\r\n        addCandidate(\"Olawale Akin\");\r\n        // for(uint i = 0; i<_candidateNames.length; i++){\r\n        //     // addCandidate(_candidateNames[i]);\r\n        // }\r\n\r\n    }\r\n\r\n    function addCandidate (string _name) private {\r\n        candidatesCount ++;\r\n        candidates[candidatesCount] = Candidate(candidatesCount, _name, 0);\r\n    }\r\n\r\n    function vote (uint _candidateId) public {\r\n        // require that they haven't voted before\r\n        require(!voters[msg.sender]);\r\n\r\n        // require a valid candidate\r\n        require(_candidateId > 0 && _candidateId <= candidatesCount);\r\n\r\n        // record that voter has voted\r\n        voters[msg.sender] = true;\r\n\r\n        // update candidate vote Count\r\n        candidates[_candidateId].voteCount ++;\r\n\r\n        // trigger voted event\r\n        votedEvent(_candidateId);\r\n    }\r\n}\r\n",
  "sourcePath": "C:\\CreativeT\\naijahacks-creativeteckies\\contracts\\Votera.sol",
  "compiler": {
    "name": "solc",
    "version": "0.4.24+commit.e67f0147.Emscripten.clang"
  },
  "schemaVersion": "2.0.1",
  "updatedAt": "2018-10-23T12:08:33.830Z"
}